{
  "contractName": "ImmutableTag",
  "abi": [
    {
      "constant": true,
      "inputs": [
        {
          "internalType": "string",
          "name": "",
          "type": "string"
        }
      ],
      "name": "tags",
      "outputs": [
        {
          "internalType": "string",
          "name": "repoURL",
          "type": "string"
        },
        {
          "internalType": "string",
          "name": "tagID",
          "type": "string"
        },
        {
          "internalType": "string",
          "name": "commitHash",
          "type": "string"
        }
      ],
      "payable": false,
      "stateMutability": "view",
      "type": "function"
    },
    {
      "constant": true,
      "inputs": [],
      "name": "tagsNum",
      "outputs": [
        {
          "internalType": "uint256",
          "name": "",
          "type": "uint256"
        }
      ],
      "payable": false,
      "stateMutability": "view",
      "type": "function"
    },
    {
      "constant": false,
      "inputs": [
        {
          "internalType": "string",
          "name": "_repoURL",
          "type": "string"
        },
        {
          "internalType": "string",
          "name": "_tagID",
          "type": "string"
        },
        {
          "internalType": "string",
          "name": "_commitHash",
          "type": "string"
        }
      ],
      "name": "createTag",
      "outputs": [],
      "payable": false,
      "stateMutability": "nonpayable",
      "type": "function"
    },
    {
      "constant": true,
      "inputs": [
        {
          "internalType": "string",
          "name": "_repoURL",
          "type": "string"
        },
        {
          "internalType": "string",
          "name": "_tagID",
          "type": "string"
        }
      ],
      "name": "getTag",
      "outputs": [
        {
          "components": [
            {
              "internalType": "string",
              "name": "repoURL",
              "type": "string"
            },
            {
              "internalType": "string",
              "name": "tagID",
              "type": "string"
            },
            {
              "internalType": "string",
              "name": "commitHash",
              "type": "string"
            }
          ],
          "internalType": "struct ImmutableTag.Tag",
          "name": "",
          "type": "tuple"
        }
      ],
      "payable": false,
      "stateMutability": "view",
      "type": "function"
    },
    {
      "constant": true,
      "inputs": [
        {
          "internalType": "string",
          "name": "_repoURL",
          "type": "string"
        },
        {
          "internalType": "string",
          "name": "_tagID",
          "type": "string"
        }
      ],
      "name": "checkTag",
      "outputs": [
        {
          "internalType": "bool",
          "name": "",
          "type": "bool"
        }
      ],
      "payable": false,
      "stateMutability": "view",
      "type": "function"
    }
  ],
  "bytecode": "0x608060405234801561001057600080fd5b50610d9a806100206000396000f3fe608060405234801561001057600080fd5b50600436106100575760003560e01c8063168960511461005c5780635368f8531461008c5780638ac5212e146100be578063b30c200e146100da578063dbae25ee1461010a575b600080fd5b610076600480360361007191908101906108c3565b610128565b6040516100839190610b82565b60405180910390f35b6100a660048036036100a19190810190610882565b6101b2565b6040516100b593929190610b9d565b60405180910390f35b6100d860048036036100d3919081019061092f565b6103ba565b005b6100f460048036036100ef91908101906108c3565b6104a9565b6040516101019190610be9565b60405180910390f35b61011261070e565b60405161011f9190610c0b565b60405180910390f35b600060608360405160200161013d9190610b60565b6040516020818303038152906040528360405160200161015e929190610b3c565b604051602081830303815290604052905060006001826040516101819190610b25565b9081526020016040518091039020600201805460018160011615610100020316600290049050141591505092915050565b600181805160208101820180518482526020830160208501208183528095505050505050600091509050806000018054600181600116156101000203166002900480601f0160208091040260200160405190810160405280929190818152602001828054600181600116156101000203166002900480156102745780601f1061024957610100808354040283529160200191610274565b820191906000526020600020905b81548152906001019060200180831161025757829003601f168201915b505050505090806001018054600181600116156101000203166002900480601f0160208091040260200160405190810160405280929190818152602001828054600181600116156101000203166002900480156103125780601f106102e757610100808354040283529160200191610312565b820191906000526020600020905b8154815290600101906020018083116102f557829003601f168201915b505050505090806002018054600181600116156101000203166002900480601f0160208091040260200160405190810160405280929190818152602001828054600181600116156101000203166002900480156103b05780601f10610385576101008083540402835291602001916103b0565b820191906000526020600020905b81548152906001019060200180831161039357829003601f168201915b5050505050905083565b6060836040516020016103cd9190610b60565b604051602081830303815290604052836040516020016103ee929190610b3c565b604051602081830303815290604052905060405180606001604052808581526020018481526020018381525060018260405161042a9190610b25565b90815260200160405180910390206000820151816000019080519060200190610454929190610714565b506020820151816001019080519060200190610471929190610714565b50604082015181600201908051906020019061048e929190610714565b50905050600080815480929190600101919050555050505050565b6104b1610794565b6060836040516020016104c49190610b60565b604051602081830303815290604052836040516020016104e5929190610b3c565b60405160208183030381529060405290506001816040516105069190610b25565b9081526020016040518091039020604051806060016040529081600082018054600181600116156101000203166002900480601f0160208091040260200160405190810160405280929190818152602001828054600181600116156101000203166002900480156105b85780601f1061058d576101008083540402835291602001916105b8565b820191906000526020600020905b81548152906001019060200180831161059b57829003601f168201915b50505050508152602001600182018054600181600116156101000203166002900480601f01602080910402602001604051908101604052809291908181526020018280546001816001161561010002031660029004801561065a5780601f1061062f5761010080835404028352916020019161065a565b820191906000526020600020905b81548152906001019060200180831161063d57829003601f168201915b50505050508152602001600282018054600181600116156101000203166002900480601f0160208091040260200160405190810160405280929190818152602001828054600181600116156101000203166002900480156106fc5780601f106106d1576101008083540402835291602001916106fc565b820191906000526020600020905b8154815290600101906020018083116106df57829003601f168201915b50505050508152505091505092915050565b60005481565b828054600181600116156101000203166002900490600052602060002090601f016020900481019282601f1061075557805160ff1916838001178555610783565b82800160010185558215610783579182015b82811115610782578251825591602001919060010190610767565b5b50905061079091906107b5565b5090565b60405180606001604052806060815260200160608152602001606081525090565b6107d791905b808211156107d35760008160009055506001016107bb565b5090565b90565b600082601f8301126107eb57600080fd5b81356107fe6107f982610c53565b610c26565b9150808252602083016020830185838301111561081a57600080fd5b610825838284610d04565b50505092915050565b600082601f83011261083f57600080fd5b813561085261084d82610c7f565b610c26565b9150808252602083016020830185838301111561086e57600080fd5b610879838284610d04565b50505092915050565b60006020828403121561089457600080fd5b600082013567ffffffffffffffff8111156108ae57600080fd5b6108ba848285016107da565b91505092915050565b600080604083850312156108d657600080fd5b600083013567ffffffffffffffff8111156108f057600080fd5b6108fc8582860161082e565b925050602083013567ffffffffffffffff81111561091957600080fd5b6109258582860161082e565b9150509250929050565b60008060006060848603121561094457600080fd5b600084013567ffffffffffffffff81111561095e57600080fd5b61096a8682870161082e565b935050602084013567ffffffffffffffff81111561098757600080fd5b6109938682870161082e565b925050604084013567ffffffffffffffff8111156109b057600080fd5b6109bc8682870161082e565b9150509250925092565b6109cf81610cee565b82525050565b60006109e082610cb6565b6109ea8185610ce3565b93506109fa818560208601610d13565b80840191505092915050565b6000610a1182610cab565b610a1b8185610cc1565b9350610a2b818560208601610d13565b610a3481610d46565b840191505092915050565b6000610a4a82610cab565b610a548185610cd2565b9350610a64818560208601610d13565b610a6d81610d46565b840191505092915050565b6000610a85600183610ce3565b91507f5f000000000000000000000000000000000000000000000000000000000000006000830152600182019050919050565b60006060830160008301518482036000860152610ad58282610a06565b91505060208301518482036020860152610aef8282610a06565b91505060408301518482036040860152610b098282610a06565b9150508091505092915050565b610b1f81610cfa565b82525050565b6000610b3182846109d5565b915081905092915050565b6000610b4882856109d5565b9150610b5482846109d5565b91508190509392505050565b6000610b6c82846109d5565b9150610b7782610a78565b915081905092915050565b6000602082019050610b9760008301846109c6565b92915050565b60006060820190508181036000830152610bb78186610a3f565b90508181036020830152610bcb8185610a3f565b90508181036040830152610bdf8184610a3f565b9050949350505050565b60006020820190508181036000830152610c038184610ab8565b905092915050565b6000602082019050610c206000830184610b16565b92915050565b6000604051905081810181811067ffffffffffffffff82111715610c4957600080fd5b8060405250919050565b600067ffffffffffffffff821115610c6a57600080fd5b601f19601f8301169050602081019050919050565b600067ffffffffffffffff821115610c9657600080fd5b601f19601f8301169050602081019050919050565b600081519050919050565b600081519050919050565b600082825260208201905092915050565b600082825260208201905092915050565b600081905092915050565b60008115159050919050565b6000819050919050565b82818337600083830152505050565b60005b83811015610d31578082015181840152602081019050610d16565b83811115610d40576000848401525b50505050565b6000601f19601f830116905091905056fea365627a7a72315820ce425f99d319b0efac28ac3c2c4564a54d5b9bad3721764ba4a95dae1accbaef6c6578706572696d656e74616cf564736f6c63430005100040",
  "source": "pragma solidity ^0.5.0;\r\npragma experimental ABIEncoderV2;\r\n\r\ncontract ImmutableTag {\r\n    uint public tagsNum;\r\n    struct Tag {\r\n        string repoURL;\r\n        string tagID;\r\n        string commitHash;\r\n    }\r\n\r\n    // key for tags is \"{repoURL}_{tagID}\" for O(1) lookup\r\n    // example: tags[\"https://github.com/Immutable-Tag/SmartContacts_v1.0.0\"] will return a Tag object\r\n    // and that Tag object will look like:\r\n    // {\r\n    //     repoURL: \"https://github.com/Immutable-Tag/SmartContacts\"\r\n    //     tagID: \"v1.0.0\"\r\n    //     commitHash: \"66190b9fc987cb12c3a302c84123122e68ef6450\"\r\n    // }\r\n    mapping(string => Tag) public tags;\r\n\r\n    function createTag(string memory _repoURL, string memory _tagID, string memory _commitHash) public {\r\n        string memory key;\r\n        key = string(abi.encodePacked(string(abi.encodePacked(_repoURL, \"_\")), _tagID));\r\n        tags[key] = Tag(_repoURL, _tagID, _commitHash);\r\n        tagsNum++;\r\n    }\r\n\r\n    function getTag(string memory _repoURL, string memory _tagID) public view returns (Tag memory) {\r\n        string memory key;\r\n        key = string(abi.encodePacked(string(abi.encodePacked(_repoURL, \"_\")), _tagID));\r\n        return tags[key];\r\n    }\r\n    \r\n    function checkTag(string memory _repoURL, string memory _tagID) public view returns (bool) {\r\n        string memory key;\r\n        key = string(abi.encodePacked(string(abi.encodePacked(_repoURL, \"_\")), _tagID));\r\n        return bytes(tags[key].commitHash).length != 0;\r\n    }\r\n}\r\n",
  "sourcePath": "C:\\Users\\Ashwitha Kassetty\\Documents\\GitHub\\SmartContracts\\contracts\\ImmutableTag.sol",
  "compiler": {
    "name": "solc",
    "version": "0.5.16+commit.9c3226ce.Emscripten.clang"
  },
  "schemaVersion": "3.4.3",
  "updatedAt": "2021-11-21T08:10:23.782Z",
  "networkType": "ethereum",
  "devdoc": {
    "methods": {}
  },
  "userdoc": {
    "methods": {}
  }
}