{
  "contractName": "ImmutableTag",
  "abi": [
    {
      "constant": true,
      "inputs": [
        {
          "internalType": "string",
          "name": "",
          "type": "string"
        }
      ],
      "name": "tags",
      "outputs": [
        {
          "internalType": "string",
          "name": "repoURL",
          "type": "string"
        },
        {
          "internalType": "string",
          "name": "tagID",
          "type": "string"
        },
        {
          "internalType": "string",
          "name": "commitHash",
          "type": "string"
        }
      ],
      "payable": false,
      "stateMutability": "view",
      "type": "function"
    },
    {
      "constant": false,
      "inputs": [
        {
          "internalType": "string",
          "name": "_repoURL",
          "type": "string"
        },
        {
          "internalType": "string",
          "name": "_tagID",
          "type": "string"
        },
        {
          "internalType": "string",
          "name": "_commitHash",
          "type": "string"
        }
      ],
      "name": "createTag",
      "outputs": [],
      "payable": false,
      "stateMutability": "nonpayable",
      "type": "function"
    },
    {
      "constant": true,
      "inputs": [
        {
          "internalType": "string",
          "name": "_repoURL",
          "type": "string"
        },
        {
          "internalType": "string",
          "name": "_tagID",
          "type": "string"
        }
      ],
      "name": "getTag",
      "outputs": [
        {
          "components": [
            {
              "internalType": "string",
              "name": "repoURL",
              "type": "string"
            },
            {
              "internalType": "string",
              "name": "tagID",
              "type": "string"
            },
            {
              "internalType": "string",
              "name": "commitHash",
              "type": "string"
            }
          ],
          "internalType": "struct ImmutableTag.Tag",
          "name": "",
          "type": "tuple"
        }
      ],
      "payable": false,
      "stateMutability": "view",
      "type": "function"
    }
  ],
  "bytecode": "0x608060405234801561001057600080fd5b50610c2b806100206000396000f3fe608060405234801561001057600080fd5b50600436106100415760003560e01c80635368f853146100465780638ac5212e14610078578063b30c200e14610094575b600080fd5b610060600480360361005b919081019061077d565b6100c4565b60405161006f93929190610a5f565b60405180910390f35b610092600480360361008d919081019061082a565b6102cc565b005b6100ae60048036036100a991908101906107be565b6103aa565b6040516100bb9190610aab565b60405180910390f35b600081805160208101820180518482526020830160208501208183528095505050505050600091509050806000018054600181600116156101000203166002900480601f0160208091040260200160405190810160405280929190818152602001828054600181600116156101000203166002900480156101865780601f1061015b57610100808354040283529160200191610186565b820191906000526020600020905b81548152906001019060200180831161016957829003601f168201915b505050505090806001018054600181600116156101000203166002900480601f0160208091040260200160405190810160405280929190818152602001828054600181600116156101000203166002900480156102245780601f106101f957610100808354040283529160200191610224565b820191906000526020600020905b81548152906001019060200180831161020757829003601f168201915b505050505090806002018054600181600116156101000203166002900480601f0160208091040260200160405190810160405280929190818152602001828054600181600116156101000203166002900480156102c25780601f10610297576101008083540402835291602001916102c2565b820191906000526020600020905b8154815290600101906020018083116102a557829003601f168201915b5050505050905083565b6060836040516020016102df9190610a3d565b60405160208183030381529060405283604051602001610300929190610a19565b604051602081830303815290604052905060405180606001604052808581526020018481526020018381525060008260405161033c9190610a02565b9081526020016040518091039020600082015181600001908051906020019061036692919061060f565b50602082015181600101908051906020019061038392919061060f565b5060408201518160020190805190602001906103a092919061060f565b5090505050505050565b6103b261068f565b6060836040516020016103c59190610a3d565b604051602081830303815290604052836040516020016103e6929190610a19565b60405160208183030381529060405290506000816040516104079190610a02565b9081526020016040518091039020604051806060016040529081600082018054600181600116156101000203166002900480601f0160208091040260200160405190810160405280929190818152602001828054600181600116156101000203166002900480156104b95780601f1061048e576101008083540402835291602001916104b9565b820191906000526020600020905b81548152906001019060200180831161049c57829003601f168201915b50505050508152602001600182018054600181600116156101000203166002900480601f01602080910402602001604051908101604052809291908181526020018280546001816001161561010002031660029004801561055b5780601f106105305761010080835404028352916020019161055b565b820191906000526020600020905b81548152906001019060200180831161053e57829003601f168201915b50505050508152602001600282018054600181600116156101000203166002900480601f0160208091040260200160405190810160405280929190818152602001828054600181600116156101000203166002900480156105fd5780601f106105d2576101008083540402835291602001916105fd565b820191906000526020600020905b8154815290600101906020018083116105e057829003601f168201915b50505050508152505091505092915050565b828054600181600116156101000203166002900490600052602060002090601f016020900481019282601f1061065057805160ff191683800117855561067e565b8280016001018555821561067e579182015b8281111561067d578251825591602001919060010190610662565b5b50905061068b91906106b0565b5090565b60405180606001604052806060815260200160608152602001606081525090565b6106d291905b808211156106ce5760008160009055506001016106b6565b5090565b90565b600082601f8301126106e657600080fd5b81356106f96106f482610afa565b610acd565b9150808252602083016020830185838301111561071557600080fd5b610720838284610b95565b50505092915050565b600082601f83011261073a57600080fd5b813561074d61074882610b26565b610acd565b9150808252602083016020830185838301111561076957600080fd5b610774838284610b95565b50505092915050565b60006020828403121561078f57600080fd5b600082013567ffffffffffffffff8111156107a957600080fd5b6107b5848285016106d5565b91505092915050565b600080604083850312156107d157600080fd5b600083013567ffffffffffffffff8111156107eb57600080fd5b6107f785828601610729565b925050602083013567ffffffffffffffff81111561081457600080fd5b61082085828601610729565b9150509250929050565b60008060006060848603121561083f57600080fd5b600084013567ffffffffffffffff81111561085957600080fd5b61086586828701610729565b935050602084013567ffffffffffffffff81111561088257600080fd5b61088e86828701610729565b925050604084013567ffffffffffffffff8111156108ab57600080fd5b6108b786828701610729565b9150509250925092565b60006108cc82610b5d565b6108d68185610b8a565b93506108e6818560208601610ba4565b80840191505092915050565b60006108fd82610b52565b6109078185610b68565b9350610917818560208601610ba4565b61092081610bd7565b840191505092915050565b600061093682610b52565b6109408185610b79565b9350610950818560208601610ba4565b61095981610bd7565b840191505092915050565b6000610971600183610b8a565b91507f5f000000000000000000000000000000000000000000000000000000000000006000830152600182019050919050565b600060608301600083015184820360008601526109c182826108f2565b915050602083015184820360208601526109db82826108f2565b915050604083015184820360408601526109f582826108f2565b9150508091505092915050565b6000610a0e82846108c1565b915081905092915050565b6000610a2582856108c1565b9150610a3182846108c1565b91508190509392505050565b6000610a4982846108c1565b9150610a5482610964565b915081905092915050565b60006060820190508181036000830152610a79818661092b565b90508181036020830152610a8d818561092b565b90508181036040830152610aa1818461092b565b9050949350505050565b60006020820190508181036000830152610ac581846109a4565b905092915050565b6000604051905081810181811067ffffffffffffffff82111715610af057600080fd5b8060405250919050565b600067ffffffffffffffff821115610b1157600080fd5b601f19601f8301169050602081019050919050565b600067ffffffffffffffff821115610b3d57600080fd5b601f19601f8301169050602081019050919050565b600081519050919050565b600081519050919050565b600082825260208201905092915050565b600082825260208201905092915050565b600081905092915050565b82818337600083830152505050565b60005b83811015610bc2578082015181840152602081019050610ba7565b83811115610bd1576000848401525b50505050565b6000601f19601f830116905091905056fea365627a7a723158207edf3a8cf2a1da60bc9bd355c3e1fd7e0dbe8ffba38574fc03a80d834925c4786c6578706572696d656e74616cf564736f6c63430005100040",
  "source": "pragma solidity ^0.5.0;\npragma experimental ABIEncoderV2;\n\ncontract ImmutableTag {\n\n    struct Tag {\n        string repoURL;\n        string tagID;\n        string commitHash;\n    }\n\n    // key for tags is \"{repoURL}_{tagID}\" for O(1) lookup\n    // example: tags[\"https://github.com/Immutable-Tag/SmartContacts_v1.0.0\"] will return a Tag object\n    // and that Tag object will look like:\n    // {\n    //     repoURL: \"https://github.com/Immutable-Tag/SmartContacts\"\n    //     tagID: \"v1.0.0\"\n    //     commitHash: \"66190b9fc987cb12c3a302c84123122e68ef6450\"\n    // }\n    mapping(string => Tag) public tags;\n\n    function createTag(string memory _repoURL, string memory _tagID, string memory _commitHash) public {\n        string memory key;\n        key = string(abi.encodePacked(string(abi.encodePacked(_repoURL, \"_\")), _tagID));\n        tags[key] = Tag(_repoURL, _tagID, _commitHash);\n    }\n\n    function getTag(string memory _repoURL, string memory _tagID) public view returns (Tag memory) {\n        string memory key;\n        key = string(abi.encodePacked(string(abi.encodePacked(_repoURL, \"_\")), _tagID));\n        return tags[key];\n    }\n}\n",
  "sourcePath": "/Users/vasudhajha/Documents/Distributed_Database_Systems/Immutable-Tag/SmartContracts/contracts/ImmutableTag.sol",
  "compiler": {
    "name": "solc",
    "version": "0.5.16+commit.9c3226ce.Emscripten.clang"
  },
  "schemaVersion": "3.4.3",
  "updatedAt": "2021-11-17T05:54:12.568Z",
  "networkType": "ethereum",
  "devdoc": {
    "methods": {}
  },
  "userdoc": {
    "methods": {}
  }
}