{
  "contractName": "ImmutableTag",
  "abi": [
    {
      "constant": true,
      "inputs": [
        {
          "internalType": "string",
          "name": "",
          "type": "string"
        }
      ],
      "name": "tags",
      "outputs": [
        {
          "internalType": "string",
          "name": "repoURL",
          "type": "string"
        },
        {
          "internalType": "string",
          "name": "tagID",
          "type": "string"
        },
        {
          "internalType": "string",
          "name": "commitHash",
          "type": "string"
        }
      ],
      "payable": false,
      "stateMutability": "view",
      "type": "function"
    },
    {
      "constant": false,
      "inputs": [
        {
          "internalType": "string",
          "name": "_repoURL",
          "type": "string"
        },
        {
          "internalType": "string",
          "name": "_tagID",
          "type": "string"
        },
        {
          "internalType": "string",
          "name": "_commitHash",
          "type": "string"
        }
      ],
      "name": "createTag",
      "outputs": [],
      "payable": false,
      "stateMutability": "nonpayable",
      "type": "function"
    },
    {
      "constant": true,
      "inputs": [
        {
          "internalType": "string",
          "name": "_repoURL",
          "type": "string"
        },
        {
          "internalType": "string",
          "name": "_tagID",
          "type": "string"
        }
      ],
      "name": "getTag",
      "outputs": [
        {
          "components": [
            {
              "internalType": "string",
              "name": "repoURL",
              "type": "string"
            },
            {
              "internalType": "string",
              "name": "tagID",
              "type": "string"
            },
            {
              "internalType": "string",
              "name": "commitHash",
              "type": "string"
            }
          ],
          "internalType": "struct ImmutableTag.Tag",
          "name": "",
          "type": "tuple"
        }
      ],
      "payable": false,
      "stateMutability": "view",
      "type": "function"
    },
    {
      "constant": true,
      "inputs": [
        {
          "internalType": "string",
          "name": "_repoURL",
          "type": "string"
        },
        {
          "internalType": "string",
          "name": "_tagID",
          "type": "string"
        }
      ],
      "name": "checkTag",
      "outputs": [
        {
          "internalType": "bool",
          "name": "",
          "type": "bool"
        }
      ],
      "payable": false,
      "stateMutability": "view",
      "type": "function"
    }
  ],
  "bytecode": "0x608060405234801561001057600080fd5b50610d25806100206000396000f3fe608060405234801561001057600080fd5b506004361061004c5760003560e01c806316896051146100515780635368f853146100815780638ac5212e146100b3578063b30c200e146100cf575b600080fd5b61006b60048036036100669190810190610882565b6100ff565b6040516100789190610b32565b60405180910390f35b61009b60048036036100969190810190610841565b610188565b6040516100aa93929190610b4d565b60405180910390f35b6100cd60048036036100c891908101906108ee565b610390565b005b6100e960048036036100e49190810190610882565b61046e565b6040516100f69190610b99565b60405180910390f35b60006060836040516020016101149190610b10565b60405160208183030381529060405283604051602001610135929190610aec565b6040516020818303038152906040529050600080826040516101579190610ad5565b9081526020016040518091039020600201805460018160011615610100020316600290049050141591505092915050565b600081805160208101820180518482526020830160208501208183528095505050505050600091509050806000018054600181600116156101000203166002900480601f01602080910402602001604051908101604052809291908181526020018280546001816001161561010002031660029004801561024a5780601f1061021f5761010080835404028352916020019161024a565b820191906000526020600020905b81548152906001019060200180831161022d57829003601f168201915b505050505090806001018054600181600116156101000203166002900480601f0160208091040260200160405190810160405280929190818152602001828054600181600116156101000203166002900480156102e85780601f106102bd576101008083540402835291602001916102e8565b820191906000526020600020905b8154815290600101906020018083116102cb57829003601f168201915b505050505090806002018054600181600116156101000203166002900480601f0160208091040260200160405190810160405280929190818152602001828054600181600116156101000203166002900480156103865780601f1061035b57610100808354040283529160200191610386565b820191906000526020600020905b81548152906001019060200180831161036957829003601f168201915b5050505050905083565b6060836040516020016103a39190610b10565b604051602081830303815290604052836040516020016103c4929190610aec565b60405160208183030381529060405290506040518060600160405280858152602001848152602001838152506000826040516104009190610ad5565b9081526020016040518091039020600082015181600001908051906020019061042a9291906106d3565b5060208201518160010190805190602001906104479291906106d3565b5060408201518160020190805190602001906104649291906106d3565b5090505050505050565b610476610753565b6060836040516020016104899190610b10565b604051602081830303815290604052836040516020016104aa929190610aec565b60405160208183030381529060405290506000816040516104cb9190610ad5565b9081526020016040518091039020604051806060016040529081600082018054600181600116156101000203166002900480601f01602080910402602001604051908101604052809291908181526020018280546001816001161561010002031660029004801561057d5780601f106105525761010080835404028352916020019161057d565b820191906000526020600020905b81548152906001019060200180831161056057829003601f168201915b50505050508152602001600182018054600181600116156101000203166002900480601f01602080910402602001604051908101604052809291908181526020018280546001816001161561010002031660029004801561061f5780601f106105f45761010080835404028352916020019161061f565b820191906000526020600020905b81548152906001019060200180831161060257829003601f168201915b50505050508152602001600282018054600181600116156101000203166002900480601f0160208091040260200160405190810160405280929190818152602001828054600181600116156101000203166002900480156106c15780601f10610696576101008083540402835291602001916106c1565b820191906000526020600020905b8154815290600101906020018083116106a457829003601f168201915b50505050508152505091505092915050565b828054600181600116156101000203166002900490600052602060002090601f016020900481019282601f1061071457805160ff1916838001178555610742565b82800160010185558215610742579182015b82811115610741578251825591602001919060010190610726565b5b50905061074f9190610774565b5090565b60405180606001604052806060815260200160608152602001606081525090565b61079691905b8082111561079257600081600090555060010161077a565b5090565b90565b600082601f8301126107aa57600080fd5b81356107bd6107b882610be8565b610bbb565b915080825260208301602083018583830111156107d957600080fd5b6107e4838284610c8f565b50505092915050565b600082601f8301126107fe57600080fd5b813561081161080c82610c14565b610bbb565b9150808252602083016020830185838301111561082d57600080fd5b610838838284610c8f565b50505092915050565b60006020828403121561085357600080fd5b600082013567ffffffffffffffff81111561086d57600080fd5b61087984828501610799565b91505092915050565b6000806040838503121561089557600080fd5b600083013567ffffffffffffffff8111156108af57600080fd5b6108bb858286016107ed565b925050602083013567ffffffffffffffff8111156108d857600080fd5b6108e4858286016107ed565b9150509250929050565b60008060006060848603121561090357600080fd5b600084013567ffffffffffffffff81111561091d57600080fd5b610929868287016107ed565b935050602084013567ffffffffffffffff81111561094657600080fd5b610952868287016107ed565b925050604084013567ffffffffffffffff81111561096f57600080fd5b61097b868287016107ed565b9150509250925092565b61098e81610c83565b82525050565b600061099f82610c4b565b6109a98185610c78565b93506109b9818560208601610c9e565b80840191505092915050565b60006109d082610c40565b6109da8185610c56565b93506109ea818560208601610c9e565b6109f381610cd1565b840191505092915050565b6000610a0982610c40565b610a138185610c67565b9350610a23818560208601610c9e565b610a2c81610cd1565b840191505092915050565b6000610a44600183610c78565b91507f5f000000000000000000000000000000000000000000000000000000000000006000830152600182019050919050565b60006060830160008301518482036000860152610a9482826109c5565b91505060208301518482036020860152610aae82826109c5565b91505060408301518482036040860152610ac882826109c5565b9150508091505092915050565b6000610ae18284610994565b915081905092915050565b6000610af88285610994565b9150610b048284610994565b91508190509392505050565b6000610b1c8284610994565b9150610b2782610a37565b915081905092915050565b6000602082019050610b476000830184610985565b92915050565b60006060820190508181036000830152610b6781866109fe565b90508181036020830152610b7b81856109fe565b90508181036040830152610b8f81846109fe565b9050949350505050565b60006020820190508181036000830152610bb38184610a77565b905092915050565b6000604051905081810181811067ffffffffffffffff82111715610bde57600080fd5b8060405250919050565b600067ffffffffffffffff821115610bff57600080fd5b601f19601f8301169050602081019050919050565b600067ffffffffffffffff821115610c2b57600080fd5b601f19601f8301169050602081019050919050565b600081519050919050565b600081519050919050565b600082825260208201905092915050565b600082825260208201905092915050565b600081905092915050565b60008115159050919050565b82818337600083830152505050565b60005b83811015610cbc578082015181840152602081019050610ca1565b83811115610ccb576000848401525b50505050565b6000601f19601f830116905091905056fea365627a7a72315820a163ed05c6dfdec901af90d9050db85176d67ef16a2e8bd2fbf0d87cb7b7e8656c6578706572696d656e74616cf564736f6c63430005100040",
  "source": "pragma solidity ^0.5.0;\npragma experimental ABIEncoderV2;\n\ncontract ImmutableTag {\n\n    struct Tag {\n        string repoURL;\n        string tagID;\n        string commitHash;\n    }\n\n    // key for tags is \"{repoURL}_{tagID}\" for O(1) lookup\n    // example: tags[\"https://github.com/Immutable-Tag/SmartContacts_v1.0.0\"] will return a Tag object\n    // and that Tag object will look like:\n    // {\n    //     repoURL: \"https://github.com/Immutable-Tag/SmartContacts\"\n    //     tagID: \"v1.0.0\"\n    //     commitHash: \"66190b9fc987cb12c3a302c84123122e68ef6450\"\n    // }\n    mapping(string => Tag) public tags;\n\n    function createTag(string memory _repoURL, string memory _tagID, string memory _commitHash) public {\n        string memory key;\n        key = string(abi.encodePacked(string(abi.encodePacked(_repoURL, \"_\")), _tagID));\n        tags[key] = Tag(_repoURL, _tagID, _commitHash);\n    }\n\n    function getTag(string memory _repoURL, string memory _tagID) public view returns (Tag memory) {\n        string memory key;\n        key = string(abi.encodePacked(string(abi.encodePacked(_repoURL, \"_\")), _tagID));\n        return tags[key];\n    }\n\n    function checkTag(string memory _repoURL, string memory _tagID) public view returns (bool) {\n        string memory key;\n        key = string(abi.encodePacked(string(abi.encodePacked(_repoURL, \"_\")), _tagID));\n        return bytes(tags[key].commitHash).length != 0;\n    }\n}\n",
  "sourcePath": "/Users/vasudhajha/Documents/Distributed_Database_Systems/Immutable-Tag/SmartContracts/contracts/ImmutableTag.sol",
  "compiler": {
    "name": "solc",
    "version": "0.5.16+commit.9c3226ce.Emscripten.clang"
  },
  "schemaVersion": "3.4.3",
  "updatedAt": "2021-11-23T07:00:22.934Z",
  "networkType": "ethereum",
  "devdoc": {
    "methods": {}
  },
  "userdoc": {
    "methods": {}
  }
}