{
  "contractName": "ImmutableTag",
  "abi": [
    {
      "constant": false,
      "inputs": [
        {
          "internalType": "string",
          "name": "_repoURL",
          "type": "string"
        },
        {
          "internalType": "string",
          "name": "_tagID",
          "type": "string"
        },
        {
          "internalType": "string",
          "name": "_commitHash",
          "type": "string"
        }
      ],
      "name": "createTag",
      "outputs": [],
      "payable": false,
      "stateMutability": "nonpayable",
      "type": "function"
    },
    {
      "constant": true,
      "inputs": [
        {
          "internalType": "string",
          "name": "_repoURL",
          "type": "string"
        },
        {
          "internalType": "string",
          "name": "_tagID",
          "type": "string"
        }
      ],
      "name": "getTag",
      "outputs": [
        {
          "components": [
            {
              "internalType": "string",
              "name": "repoURL",
              "type": "string"
            },
            {
              "internalType": "string",
              "name": "tagID",
              "type": "string"
            },
            {
              "internalType": "string",
              "name": "commitHash",
              "type": "string"
            }
          ],
          "internalType": "struct ImmutableTag.Tag",
          "name": "",
          "type": "tuple"
        }
      ],
      "payable": false,
      "stateMutability": "view",
      "type": "function"
    },
    {
      "constant": true,
      "inputs": [
        {
          "internalType": "string",
          "name": "_repoURL",
          "type": "string"
        },
        {
          "internalType": "string",
          "name": "_tagID",
          "type": "string"
        }
      ],
      "name": "checkTag",
      "outputs": [
        {
          "internalType": "bool",
          "name": "",
          "type": "bool"
        }
      ],
      "payable": false,
      "stateMutability": "view",
      "type": "function"
    }
  ],
  "bytecode": "0x608060405234801561001057600080fd5b50610989806100206000396000f3fe608060405234801561001057600080fd5b50600436106100415760003560e01c806316896051146100465780638ac5212e14610076578063b30c200e14610092575b600080fd5b610060600480360361005b91908101906105a8565b6100c2565b60405161006d919061081f565b60405180910390f35b610090600480360361008b9190810190610614565b61014b565b005b6100ac60048036036100a791908101906105a8565b610229565b6040516100b9919061083a565b60405180910390f35b60006060836040516020016100d791906107fd565b604051602081830303815290604052836040516020016100f89291906107d9565b60405160208183030381529060405290506000808260405161011a91906107c2565b9081526020016040518091039020600201805460018160011615610100020316600290049050141591505092915050565b60608360405160200161015e91906107fd565b6040516020818303038152906040528360405160200161017f9291906107d9565b60405160208183030381529060405290506040518060600160405280858152602001848152602001838152506000826040516101bb91906107c2565b908152602001604051809103902060008201518160000190805190602001906101e592919061048e565b50602082015181600101908051906020019061020292919061048e565b50604082015181600201908051906020019061021f92919061048e565b5090505050505050565b61023161050e565b60608360405160200161024491906107fd565b604051602081830303815290604052836040516020016102659291906107d9565b604051602081830303815290604052905060008160405161028691906107c2565b9081526020016040518091039020604051806060016040529081600082018054600181600116156101000203166002900480601f0160208091040260200160405190810160405280929190818152602001828054600181600116156101000203166002900480156103385780601f1061030d57610100808354040283529160200191610338565b820191906000526020600020905b81548152906001019060200180831161031b57829003601f168201915b50505050508152602001600182018054600181600116156101000203166002900480601f0160208091040260200160405190810160405280929190818152602001828054600181600116156101000203166002900480156103da5780601f106103af576101008083540402835291602001916103da565b820191906000526020600020905b8154815290600101906020018083116103bd57829003601f168201915b50505050508152602001600282018054600181600116156101000203166002900480601f01602080910402602001604051908101604052809291908181526020018280546001816001161561010002031660029004801561047c5780601f106104515761010080835404028352916020019161047c565b820191906000526020600020905b81548152906001019060200180831161045f57829003601f168201915b50505050508152505091505092915050565b828054600181600116156101000203166002900490600052602060002090601f016020900481019282601f106104cf57805160ff19168380011785556104fd565b828001600101855582156104fd579182015b828111156104fc5782518255916020019190600101906104e1565b5b50905061050a919061052f565b5090565b60405180606001604052806060815260200160608152602001606081525090565b61055191905b8082111561054d576000816000905550600101610535565b5090565b90565b600082601f83011261056557600080fd5b813561057861057382610889565b61085c565b9150808252602083016020830185838301111561059457600080fd5b61059f8382846108f3565b50505092915050565b600080604083850312156105bb57600080fd5b600083013567ffffffffffffffff8111156105d557600080fd5b6105e185828601610554565b925050602083013567ffffffffffffffff8111156105fe57600080fd5b61060a85828601610554565b9150509250929050565b60008060006060848603121561062957600080fd5b600084013567ffffffffffffffff81111561064357600080fd5b61064f86828701610554565b935050602084013567ffffffffffffffff81111561066c57600080fd5b61067886828701610554565b925050604084013567ffffffffffffffff81111561069557600080fd5b6106a186828701610554565b9150509250925092565b6106b4816108e7565b82525050565b60006106c5826108c0565b6106cf81856108dc565b93506106df818560208601610902565b80840191505092915050565b60006106f6826108b5565b61070081856108cb565b9350610710818560208601610902565b61071981610935565b840191505092915050565b60006107316001836108dc565b91507f5f000000000000000000000000000000000000000000000000000000000000006000830152600182019050919050565b6000606083016000830151848203600086015261078182826106eb565b9150506020830151848203602086015261079b82826106eb565b915050604083015184820360408601526107b582826106eb565b9150508091505092915050565b60006107ce82846106ba565b915081905092915050565b60006107e582856106ba565b91506107f182846106ba565b91508190509392505050565b600061080982846106ba565b915061081482610724565b915081905092915050565b600060208201905061083460008301846106ab565b92915050565b600060208201905081810360008301526108548184610764565b905092915050565b6000604051905081810181811067ffffffffffffffff8211171561087f57600080fd5b8060405250919050565b600067ffffffffffffffff8211156108a057600080fd5b601f19601f8301169050602081019050919050565b600081519050919050565b600081519050919050565b600082825260208201905092915050565b600081905092915050565b60008115159050919050565b82818337600083830152505050565b60005b83811015610920578082015181840152602081019050610905565b8381111561092f576000848401525b50505050565b6000601f19601f830116905091905056fea365627a7a723158201918dfb2fb36c50237fa425b08ef15447bcb890448893b1ee42f339505ee824d6c6578706572696d656e74616cf564736f6c63430005100040",
  "source": "pragma solidity ^0.5.0;\npragma experimental ABIEncoderV2;\n\ncontract ImmutableTag {\n\n    struct Tag {\n        string repoURL;\n        string tagID;\n        string commitHash;\n    }\n\n    // key for tags is \"{repoURL}_{tagID}\" for O(1) lookup\n    // example: tags[\"https://github.com/Immutable-Tag/SmartContacts_v1.0.0\"] will return a Tag object\n    // and that Tag object will look like:\n    // {\n    //     repoURL: \"https://github.com/Immutable-Tag/SmartContacts\"\n    //     tagID: \"v1.0.0\"\n    //     commitHash: \"66190b9fc987cb12c3a302c84123122e68ef6450\"\n    // }\n    mapping(string => Tag) private tags;\n\n    function createTag(string memory _repoURL, string memory _tagID, string memory _commitHash) public {\n        string memory key;\n        key = string(abi.encodePacked(string(abi.encodePacked(_repoURL, \"_\")), _tagID));\n        tags[key] = Tag(_repoURL, _tagID, _commitHash);\n    }\n\n    function getTag(string memory _repoURL, string memory _tagID) public view returns (Tag memory) {\n        string memory key;\n        key = string(abi.encodePacked(string(abi.encodePacked(_repoURL, \"_\")), _tagID));\n        return tags[key];\n    }\n\n    function checkTag(string memory _repoURL, string memory _tagID) public view returns (bool) {\n        string memory key;\n        key = string(abi.encodePacked(string(abi.encodePacked(_repoURL, \"_\")), _tagID));\n        return bytes(tags[key].commitHash).length != 0;\n    }\n}\n",
  "sourcePath": "/Users/vasudhajha/Documents/Distributed_Database_Systems/Immutable-Tag/SmartContracts/contracts/ImmutableTag.sol",
  "compiler": {
    "name": "solc",
    "version": "0.5.16+commit.9c3226ce.Emscripten.clang"
  },
  "schemaVersion": "3.4.3",
  "updatedAt": "2021-11-27T18:34:47.227Z",
  "networkType": "ethereum",
  "devdoc": {
    "methods": {}
  },
  "userdoc": {
    "methods": {}
  }
}